:1000000012C02CC02BC09EC229C028C0B2C226C0BC
:1000100025C024C023C06CC121C020C01FC01EC089
:100020001DC01CC01BC011241FBECFE5D4E0DEBF25
:10003000CDBF11E0A0E6B0E0E4E6FAE102C0059031
:100040000D92A434B107D9F711E0A4E4B1E001C0E6
:100050001D92AC3DB107E1F7C8DCD3CCD1CF87B35B
:10006000876087BB88B3876088BB08958A9A82B30C
:100070008C6082BB08958A3018F4805D99270895BA
:10008000895C99270895982FFB018156863010F4DA
:10009000975505C0892F8154863028F49753908353
:1000A00081E090E00895892F80538A3018F080E035
:1000B00090E00895808381E090E00895EF92FF92B0
:1000C0000F931F93CF93DF93CDB7DEB721970FB672
:1000D000F894DEBF0FBECDBF7C018B01BE016F5F08
:1000E0007F4FFC018081CFDF882391F08981829549
:1000F000807F8983B801F7018181C5DF882341F0C2
:10010000F80180819981892B808381E090E002C091
:1001100080E090E021960FB6F894DEBF0FBECDBF11
:10012000DF91CF911F910F91FF90EF900895EF9283
:10013000FF920F931F93CF93DF93CDB7DEB7229734
:100140000FB6F894DEBF0FBECDBF8C017B01BE01A0
:100150006F5F7F4FB3DF8823B1F0BE016E5F7F4FCB
:10016000C8010296ABDF882371F089819927982F07
:1001700088272A813327822B932BF7019183808351
:1001800081E090E002C080E090E022960FB6F89403
:10019000DEBF0FBECDBFDF91CF911F910F91FF90BA
:1001A000EF900895EF92FF920F931F93CF93DF93F9
:1001B000CDB7DEB723970FB6F894DEBF0FBECDBF25
:1001C0008C017B01BE016F5F7F4F78DF882399F13F
:1001D000BE016E5F7F4FC801029670DF882359F120
:1001E000BE016D5F7F4FC801049668DF882319F157
:1001F00089819927AA27BB27DC01992788272A818B
:10020000332744275527542F432F322F2227822B61
:10021000932BA42BB52B2B81332744275527822BD7
:10022000932BA42BB52BF70180839183A283B383F7
:1002300081E090E002C080E090E023960FB6F89451
:10024000DEBF0FBECDBFDF91CF911F910F91FF9009
:10025000EF900895FB01982F92959F709A3010F4BB
:10026000905D01C0995C292F332721938F708A30CC
:1002700010F4805D01C0895C992780830895EF9216
:10028000FF920F931F938C017B01892F9927E2DF47
:1002900082E090E0E80EF91EB701802FDBDF1F91AE
:1002A0000F91FF90EF900895CF92DF92EF92FF921F
:1002B0000F931F936B017C018A01AA27BB27BA0108
:1002C000C9DF0E5F1F4FB801C601D9DF1F910F9123
:1002D000FF90EF90DF90CF900895C8DEF89410BCA7
:1002E00083E089B988E98AB986E880BD7894089561
:1002F0001F920F920FB60F9211248F93EF93FF93DB
:100300008CB1E0914501FF27E95BFE4F808380912E
:1003100045018F5F8093450180914501803111F443
:1003200010924501809144018F5F80934401809138
:1003300044018D3009F4929AFF91EF918F910F90C3
:100340000FBE0F901F901895909146018091450126
:1003500020E030E0981711F021E030E0C901089565
:10036000929A0895F89410924601109245011092C5
:100370004401789492980895DC01109260011092E3
:100380005F012091A4013091A50107C080915F0118
:10039000909160012817390730F1909146018091C2
:1003A0004501981799F3F894E0914601FF27E95B1E
:1003B000FE4F80818C93809146018F5F8093460130
:1003C00080914601803111F41092460180914401E0
:1003D000815080934401809144017894823031F0BF
:1003E00081E090E0089580E090E00895C09A9298AE
:1003F00081E090E00895482F1092600110925F0113
:100400002091A2013091A30107C080915F019091DA
:10041000600128173907C0F08399F7CF1092600167
:1004200010925F012091A6013091A70107C0809131
:100430005F01909160012817390730F05D9BF7CF7D
:100440004CB981E090E0089580E090E00895CF936A
:10045000DF93EC0107C0CFDF882319F480E090E040
:1004600006C0219688818823B1F781E090E0DF9172
:10047000CF910895FF920F931F93CF93DF938C0139
:10048000F62EC0E0D0E00BC0F801E80FF11D80812E
:10049000B2DF2196882319F480E090E005C08C2F0C
:1004A000CF1590F381E090E0DF91CF911F910F91F4
:1004B000FF90089580E690E0CADF9927089567E5E8
:1004C00071E0C8DE62E087E591E0D4DF882319F4AB
:1004D00080E090E00895EEDF9927089567E571E0E8
:1004E000CEDE64E087E591E0C5DF882319F480E083
:1004F00090E00895DFDF9927089547E551E0D4DEC5
:1005000066E087E591E0B6DF882319F480E090E0AB
:100510000895D0DF99270895F8949AE095BD87EB68
:1005200083BD14BC89B7806889BF1FBC9EBD8FEF97
:1005300097E49BBD8ABD1DBC1CBC89B7806189BF87
:10054000789408951F920F920FB60F9211248F93F3
:100550009F9380915F01909160010196909360015B
:1005600080935F019F918F910F900FBE0F901F900E
:1005700018951F920F920FB60F9211248F939F938D
:1005800080915D0190915E01019690935E01809350
:100590005D019F918F910F900FBE0F901F90189546
:1005A0009C0110925E0110925D0180915D0190911D
:1005B0005E0182179307C8F308959C0110926001B1
:1005C00010925F0180915F01909160018217930703
:1005D000C8F30895FC012FEF3FEF47E150E0819110
:1005E0002827822F82958227082E8695869580253A
:1005F000082E869580258770022E232F86950794D6
:100600008795302D28270694879530252827415037
:10061000504029F7C9010895E19B03C081E090E0B3
:10062000089547E150E062E070E085E991E000DA8A
:1006300085E991E0CFDFBC0180E090E00FDA80E057
:1006400090E008950F931F93CF93DF93CDB7DEB75C
:1006500067970FB6F894DEBF0FBECDBFE19B03C016
:1006600081E090E01FC047E150E062E070E0CE0121
:100670000196C9D980E090E0D6D98C01CE010196CF
:10068000A9DF0817190719F082E090E00BC0A5E96F
:10069000B1E0FE01319687E101900D928150E1F7C2
:1006A00080E090E067960FB6F894DEBF0FBECDBF36
:1006B000DF91CF911F910F910895A5E9B1E0E3E695
:1006C000F0E087E101900D928150E1F70895BADFE3
:1006D000882349F0A5E9B1E0E3E6F0E087E1019085
:1006E0000D928150E1F708951F93182F1092B601D3
:1006F0001092B7011092B8011092B9011092BB018B
:100700001092BA011092BC01E0916401F091650170
:100710000190F081E02DCB01BA010995882321F0E9
:100720008093BC01992709C01092B5011092B401C1
:100730001093AC01C19880E090E01F910895CF9292
:10074000DF92EF92FF920F931F937A018B01690161
:10075000C19AE0916401F09165010280F381E02D7E
:100760000995E092B601F092B7010093B801109399
:10077000B901D092BB01C092BA018093BC01992704
:100780001F910F91FF90EF90DF90CF9008955F92AF
:100790006F927F928F929F92AF92BF92CF92DF9291
:1007A000EF92FF920F931F93CF93DF933A014B0188
:1007B00058016901E701B901A80196DF882309F012
:1007C00073C010925E0110925D01EE24FF24870138
:1007D00051E0552E5BC093013F733093AF012093DE
:1007E000AE01D401C3014EE0B695A79597958795C4
:1007F0004A95D1F78093AD0140E050E4421B530B82
:10080000CE01AA27BB27A816B906CA06DB0610F434
:10081000D601C5019A018417950708F49C0130930D
:10082000B1012093B0018FEF9FEF9093B3018093BC
:10083000B201E0916201F09163010995882369F5A5
:10084000E0916401F09165010480F581E02D8091D3
:10085000B2019091B30109958823F9F48091B40114
:100860009091B501AA27BB27680E791E8A1E9B1E90
:10087000A81AB90ACA0ADB0AE80EF91E0A1F1B1FCA
:1008800081E0582611F0C19801C0C19AA114B104A9
:10089000C104D10409F09FCF80E020915D01309127
:1008A0005E01B801A7014BDF9927DF91CF911F911E
:1008B0000F91FF90EF90DF90CF90BF90AF909F90FF
:1008C0008F907F906F905F900895FF920F931F938A
:1008D000CF93DF93F62E8A01E901A90166277727D6
:1008E00003DF8823C1F4F092AD011093AF010093B0
:1008F000AE01D093B101C093B001E0916201F091DB
:10090000630109954091B4015091B501662777279D
:1009100020E030E014DF9927DF91CF911F910F91F4
:10092000FF900895CF92DF92EF92FF920F931F9363
:10093000CF93DF93CDB7DEB721970FB6F894DEBF24
:100940000FBECDBFC090B001D090B1018091970192
:1009500089830091B2011091B301EE24FF2427C0D6
:10096000E0916401F09165010680F781E02DCE01F0
:10097000019609958823F9F489810827202F22956B
:100980002027022E269526952025022E2695202505
:100990002770002E012F269507942795102D0227EA
:1009A00006942795102502270894E11CF11CEC14ED
:1009B000FD0409F0D5CFF092B501E092B401109397
:1009C000B3010093B20180E090E021960FB6F89455
:1009D000DEBF0FBECDBFDF91CF911F910F91FF9072
:1009E000EF90DF90CF90089580E090E008959927F0
:1009F000089580E090E00895FC0190919701809126
:100A00006101882321F4908380E090E00895808143
:100A1000891719F088E090E0089580E090E008954B
:100A2000CF92DF92EF92FF920F931F93CF93DF93BA
:100A3000CDB7DEB721970FB6F894DEBF0FBECDBF9E
:100A4000C090B001D090B1010091B2011091B301FA
:100A5000EE24FF2427C0E0916401F0916501068037
:100A6000F781E02DCE01019609958823F9F489815B
:100A70000827202F22952027022E2695269520250F
:100A8000022E269520252770002E012F26950794EB
:100A90002795102D022706942795102502270894E4
:100AA000E11CF11CEC14FD0409F0D5CFF092B50166
:100AB000E092B4011093B3010093B20180E090E0A2
:100AC00021960FB6F894DEBF0FBECDBFDF91CF9158
:100AD0001F910F91FF90EF90DF90CF90089542DC2F
:100AE00080E089DC882319F080E090E0089587E0B9
:100AF00090E008951F93182F7EDC882309F417E0F7
:100B00002FDC812F99271F91089536DC882319F057
:100B100080E090E0089587E090E008950F931F93A0
:100B2000CF93DF93CDB7DEB722970FB6F894DEBF31
:100B30000FBECDBF8C01CE0101961EDC8823B1F023
:100B4000CE01029619DC882389F089819927982F94
:100B500088272A813327822B932B8017910719F43A
:100B600080E090E005C08AE090E002C087E090E07D
:100B700022960FB6F894DEBF0FBECDBFDF91CF91A6
:100B80001F910F910895CF93DF93CDB7DEB72197D3
:100B90000FB6F894DEBF0FBECDBFE4DBCE010196E9
:100BA000EBDB882331F08981882319F480E090E021
:100BB00002C087E090E021960FB6F894DEBF0FBE2A
:100BC000CDBFDF91CF910895CF93DF93CDB7DEB73F
:100BD00021970FB6F894DEBF0FBECDBFCE010196B0
:100BE000CBDB882311F487E08983BADB89819927DD
:100BF00021960FB6F894DEBF0FBECDBFDF91CF9127
:100C00000895CF93DF93EC01892F9927F4DB882394
:100C100069F08C2FF0DB882349F096DB882319F0EC
:100C200089E090E005C080E090E002C087E090E0BD
:100C3000DF91CF910895FC018081DDDB882319F0DD
:100C400080E090E0089587E090E0089584B3807F8D
:100C500084BB85B38F6085BBA498AC9A0895A59892
:100C6000AD9AF4DF089584B38F6084BB85B38F6041
:100C700085BBA498AC9A089584B3887F84BBA39A5B
:100C800085B38F6085BBA498AC9A0895EF92FF92CC
:100C90001F93CF93DF93182FC0919C01D0919D019A
:100CA000E0909E01F0909F0184B3806384BB84B385
:100CB000876084BBAD98CE0180DC112329F0AC980D
:100CC00085B31095812385BBCE0177DCAD9AC70132
:100CD00067DCAC9A85B3876085BB84B38F7C84BBAB
:100CE00084B3887F84BBDF91CF911F91FF90EF90F9
:100CF000089540919A0150919B01109260011092C9
:100D00005F01282F332709C083B399278071907022
:100D10008217930711F481E008C080915F019091E0
:100D200060018417950780F380E099270895BF92AA
:100D3000CF92DF92EF92FF920F931F93CF93DF93A7
:100D40007C01C091AA01D091AB01D0909801B090E4
:100D5000990110925E0110925D0100E023C000FD38
:100D600003C0AB98CC2403C0AB9A80E1C82E10E03E
:100D700015C083B39927807190702C2D332782176B
:100D8000930771F41F5F1D1531F40F5F043041F4B8
:100D900080E090E010C08B2D99270FDC1D1548F3E3
:100DA000CE010BDC80915D0190915E018E159F0557
:100DB000B0F28CE090E0DF91CF911F910F91FF9006
:100DC000EF90DF90CF90BF9008951F93182F85B3B9
:100DD000807F912F929596959770892B85BB80E0A7
:100DE00088DF882319F481E090E028C085B3807FF4
:100DF000912F969596959770892B886085BB80E199
:100E000078DF882319F482E090E018C085B3807FF2
:100E10001370812B85BB80E06CDF882319F483E09D
:100E200090E00CC085B38F6085BB80E162DF8823D2
:100E300019F484E090E002C080E090E01F910895F2
:100E40001F93182F85B3807F912F92959695969535
:100E50009370892B85BB80E04CDF882319F481E0F7
:100E600090E02EC085B3807F912F92959F709370F4
:100E7000892B886085BB80E13CDF882319F482E000
:100E800090E01EC095B3907F812F869586958370E4
:100E9000982B95BB80E02DDF882319F483E090E048
:100EA0000FC085B3807F1370812B886085BB80E184
:100EB00020DF882319F484E090E002C080E090E015
:100EC0001F9108951F93CF93DF93EC01109195012B
:100ED0001882AB9880E00DDF882319F481E090E060
:100EE00035C0812F8A95F1F783B398818295880F59
:100EF000807E892B8883AB9A80E1FBDE882319F4FE
:100F000082E090E023C0812F8A95F1F783B3988126
:100F10008770880F880F892B8883AB9880E0E9DE83
:100F2000882319F483E090E011C01A95F1F783B398
:100F300098818370982B9883AB9A80E1DADE8823BE
:100F400019F484E090E002C080E090E0DF91CF915E
:100F50001F910895CF93DF93C92FDD2736DF8823B4
:100F600011F48C2F32DF9927DF91CF9108957F9272
:100F70008F929F92AF92BF92CF92DF92EF92FF92A9
:100F80000F931F93CF93DF93CDB7DEB722970FB6A2
:100F9000F894DEBF0FBECDBF8090B0019090B1013C
:100FA00062DE81E012DF182F8823B9F48091AC0152
:100FB0000CDF182F882389F48091AD0106DF182FEC
:100FC000882359F48091AE019091AF01C3DF182FAF
:100FD000882319F4C401BEDF182F4EDEE090B20161
:100FE000F090B301112329F07724AA24BB2400E058
:100FF0003DC07724AA24BB2400E034C032E0C32ED5
:10100000D12CCC0EDD1EC6015DDF182F882309F020
:101010002DC0002351F4E0916401F0916501068038
:10102000F781E02DC6010995082F8A81780E739407
:10103000E8262E2D22952E25022E26952695202552
:10104000022E2695202527700E2CEF2C269507942E
:101050002795F02CE22606942795F024E2260894A2
:10106000A11CB11CA814B90408F4C8CFB092B501F2
:10107000A092B401F092B301E092B201112321F4E5
:10108000CE0101961FDF182FE1DD002319F0802F1C
:1010900099270DC0112319F0812F992708C0898144
:1010A000781619F480E090E002C086E090E0229685
:1010B0000FB6F894DEBF0FBECDBFDF91CF911F9169
:1010C0000F91FF90EF90DF90CF90BF90AF909F90E7
:1010D0008F907F900895CF92DF92EF92FF920F93BF
:1010E0001F93CF93DF93CDB7DEB724970FB6F89455
:1010F000DEBF0FBECDBF182FE62E6A01F22EB3DD84
:10110000812F63DE182F882309F043C0EE2069F099
:1011100029D900E0F601E00FF11D808156DE182F7D
:101120008823B9F50F5F0E15A9F7FF2051F1A4DD53
:10113000FA828FEFF81651F4CE010296C3DE182F13
:10114000882339F58A81BBD98823E9F0EE24FF246E
:1011500014C0CE010196B6DE182F8823D1F48E017B
:101160000D5F1F4FB801898175D862E0C80182D92F
:101170000894E11CF11C882331F08A81E81648F3B9
:1011800004C010E006C017E004C094D98823D9F346
:10119000F8CF5CDD812F992724960FB6F894DEBF37
:1011A0000FBECDBFDF91CF911F910F91FF90EF90B8
:1011B000DF90CF900895AF92BF92CF92DF92EF92DF
:1011C000FF920F931F93CF93DF93CDB7DEB7229794
:1011D0000FB6F894DEBF0FBECDBFA090B001B090A7
:1011E000B10141DD82E0F1DD382F8823B9F480912F
:1011F000AC01EBDD382F882389F48091AD01E5DD6A
:10120000382F882359F48091AE019091AF01A2DE6E
:10121000382F882319F4C5019DDE382F0091B201C3
:101220001091B301332329F0DD24EE24FF24CC24D4
:101230003AC0DD24EE24FF24CC2431C0CC2061F45C
:10124000E0916401F09165010680F781E02DCE0107
:1012500002960995C82E01C01A828A81B6DD382F00
:10126000882309F58A81D80ED3940827202F229548
:101270002027022E269526952025022E269520250C
:101280002770002E012F269507942795102D0227F1
:1012900006942795102502270894E11CF11CEA14F6
:1012A000FB0408F4CBCFF092B501E092B4011093A7
:1012B000B3010093B201332311F48D2D86DDDCDC04
:1012C0001982CE010196FEDD182FC0DCCC2019F06A
:1012D0008C2D99270DC0112319F0812F992708C053
:1012E0008981D81619F480E090E002C086E090E091
:1012F00022960FB6F894DEBF0FBECDBFDF91CF911F
:101300001F910F91FF90EF90DF90CF90BF90AF9023
:10131000089585B38F6185BB84B38F6184BB0895C5
:1013200080958F71806E85BB089585B38F6185BB75
:1013300084B3807E84BB0895CF93DF93EC018D2F1F
:1013400099277EDD882311F48C2F7ADD9927DF9190
:10135000CF910895AF92BF92DF92EF92FF920F93D9
:101360001F93CF93DF93CDB7DEB721970FB6F894D5
:10137000DEBF0FBECDBFE090CD01F090CE01A090BA
:10138000CF01B090D00110925E0110925D01EAD7BA
:1013900080E031D868DCC701CFDF082FC7018A0D94
:1013A0009B1D0197002349F5C7DF082F882329F5E6
:1013B00091E0D92E10E0EE24FF2416C0CE01019654
:1013C000DBD78823C1F089813BDD082F8823B1F466
:1013D00081E0D82611F0C19801C0C19A8981180F07
:1013E0001F5F0894E11CF11CEA14FB0439F7812FFC
:1013F00027DD082F03C007E001C010E027DC802FA5
:10140000FAD7002311F4812FF6D7AAD7C19A202F3B
:10141000332780915D0190915E019093BB01809391
:10142000BA012093BC01211172D121960FB6F89414
:10143000DEBF0FBECDBFDF91CF911F910F91FF9007
:10144000EF90DF90BF90AF90089510926701C09821
:10145000C29A88D70895AF92BF92CF92DF92FF923F
:101460000F931F93CF93DF93CDB7DEB721970FB6BE
:10147000F894DEBF0FBECDBF24C1CE0101967CD74C
:1014800099819A3019F09D3009F0FAC08091670176
:10149000882309F416C164D7C09A309167013832A5
:1014A00011F411E029C0332309F4E7C0E32FFF272B
:1014B000E859FE4F10822DECA22E20E0B22E17C06C
:1014C00020E0F50141815281E22FFF27DA01AE0FC2
:1014D000BF1F9C91E859FE4F8081981721F42F5F20
:1014E000261769F0F1CF87E090E0A80EB91EF5014C
:1014F0006081662329F712E0AA24BB24A6C0932F9B
:10150000921B332728593E4FF501C380D480109297
:10151000D9011092DA011092DB01890102C00F5F3C
:101520001F4FF80180818032D1F3F92EF20EF01AAC
:10153000C114D10409F076C0FF2009F47AC083E019
:1015400090E082C08A3219F00894C11CD11CFF209F
:1015500031F48A3209F46DC084E090E075C08437BC
:1015600009F43FC0853728F48A3231F08236B9F564
:1015700003C08737A1F51BC0F1E0FF1508F05CC080
:101580006091D901603109F45AC0772763547E4FC6
:10159000C80194D5882309F455C08091D9018F5F83
:1015A0008093D9018EEFF80E0E5F1F4F18C093E0A5
:1015B0009F1508F041C06091DA017727660F771F09
:1015C00063537E4FC801B3D58823E1F18091DA01DE
:1015D0008F5F8093DA01ECEFFE0E0C5F1F4FF80176
:1015E0001BC0F5E0FF1540F56091DB017727660F22
:1015F000771F660F771F6F527E4FC801D3D58823A0
:1016000009F18091DB018F5F8093DB018AEFF80E97
:101610000A5F1F4FE4CF319680818032E1F3F00EF4
:10162000FE1A8F01F6018081882309F08BCFFF20FD
:1016300031F480E090E008C085E090E005C087E0EC
:1016400090E002C086E090E0182F812F38D7A114D7
:10165000B10449F0112339F4C29AF50185819681CC
:10166000FC01099508C0C29881E080936601109240
:101670005E0110925D011092670174D6C09821C07E
:10168000983011F09F3731F480916701882389F0F9
:1016900081500CC09032A8F080916701883248F4E4
:1016A000E82FFF27E859FE4F90838F5F80936701F3
:1016B00008C0C29881E08093660110925E0110928A
:1016C0005D0142D6882309F0D8CE2091A001309147
:1016D000A10180916601882351F080915D01909174
:1016E0005E012817390718F4C29A109266012196F4
:1016F0000FB6F894DEBF0FBECDBFDF91CF911F9123
:101700000F91FF90DF90CF90BF90AF900895EF9230
:10171000FF920F931F93CF93DF93CDB7DEB721973F
:101720000FB6F894DEBF0FBECDBFC2981BD6E090B7
:10173000960181E0F82E00E010E014C08091A00135
:101740009091A1012DD781E0F82611F0C29805C033
:10175000C29A03C0CE0101960FD6F6D58823D1F7E1
:101760000F5F1F4F0E1550F3FBD5C29A21960FB68F
:10177000F894DEBF0FBECDBFDF91CF911F910F91C7
:10178000FF90EF900895C1988091BD017FDAC19AD2
:1017900080E095D6089585E090E0A0D60895609108
:1017A000D90162502091BE014FEB51E08091BD0103
:1017B00092DC85D608951F93C19855DA8091CD01AA
:1017C0009091CE01B4DA182F41DAC19A812F77D6E1
:1017D0001F910895EF92FF920F931F93E090A8013D
:1017E000F090A9010091D5011091D6012091D70167
:1017F0003091D8014091D1015091D2016091D30133
:101800007091D4018091BD01C2D7811180DF1F91F9
:101810000F91FF90EF90089520919001223049F0B0
:1018200082E890E09093650180936401213051F447
:101830000CC08AE790E0909365018093640181E099
:101840008093610187EB97E002C082E994E0909376
:10185000630180936201BEDF0895209190012230E0
:1018600049F08AE890E0909365018093640121300B
:1018700049F40BC08AE790E090936501809364017E
:10188000109261018BED98E002C080E195E09093A9
:101890006301809362019EDF08958091BD01809372
:1018A000900108958091BC010AD68091BA0190916F
:1018B000BB0114D608958091BD01E5E9F1E0E80F80
:1018C000F11D8091BE01808380E0F9D5089580915B
:1018D000BD01E5E9F1E0E80FF11D8081F0D5089543
:1018E000E091BD01FF27EE0FFF1FEB56FE4F8091E9
:1018F000CD019091CE019683858380E0E0D5089557
:10190000E091BD01FF27EE0FFF1FEB56FE4F8581D3
:101910009681E4D508958091BD01882319F4CDD630
:1019200080E005C0813011F48DD601C075D6C7D5D1
:10193000089585E0C4D589E0C2D508950F931F931B
:1019400011D580E058D5E5DC00E084E991E014D5BC
:10195000882309F43DC080919401982F9F71909342
:101960009301807E80939401803811F410E031C09F
:10197000882349F4892FD4DC81E0082711F0C1982D
:10198000E4CFC19AE2CF803201F7892F9927909353
:1019900092018093910110925E0110925D0111E01D
:1019A0000AC0112341F0D0D4882329F084E991E0C2
:1019B000E3D4811110E020915D0130915E018091AE
:1019C0009101909192012817390758F3112319F2C8
:1019D00011E080E0A5DCA9DC812F0DD5C1D4C19A2E
:1019E000111195DE1F910F910895CFE5D4E0DEBF70
:1019F000CDBF35D391D571D432D969D626DD2BDD53
:101A0000FECFF8942EC0DC01CB01FC01E199FECFA2
:101A100006C0FFBBEEBBE09A31960DB20D9241506D
:101A20005040B8F70895A8E1B0E042E050E0EDCFB3
:101A3000DC01CB0102C02D9105D041505040D8F7B8
:101A40000895262FE199FECF9FBB8EBB2DBB0FB60D
:101A5000F894E29AE19A0FBE01960895F2DF272FDB
:041A6000F1CFFFCFF4
:101A64000D0A000205000314FF0F64006400320035
:101A74008813881388130004C800F404F704F904D5
:101A8400FC04C305E40501061B066F057A058E05F3
:101A940085056D0062007200627474007700740042
:101AA4007777006100630062622A00780076006A3A
:101AB4000070627300626200706267007077730086
:101AC40062770070776700706300707100019200A4
:101AD40094004D0C01960098000C0C019C00980099
:101AE4002D0C019E000000520C019400A000AA09D4
:101AF40001A3009C00DB0B01A500A700CF0B01ABE9
:101B0400009400C30B01AD000000CB0B01AF00003B
:101B1400009E0C03B100B5005B0C03B80094006791
:101B24000C03BC00C000700C03C3009400800C02C2
:101B3400C70094008B0C02CA000000990C0000003E
:041B4400000000009D
:00000001FF
