:100000000C9434000C9451000C9451000C94510049
:100010000C9451000C9451000C9451000C94EC027F
:100020000C9451000C9451000C9451000C94030357
:100030000C9451000C9451000C9451000C945100FC
:100040000C9451000C9451000C94B8010C94510084
:100050000C9451000C9451000C9451000C945100DC
:100060000C9451000C94510011241FBECFEFD4E02A
:10007000DEBFCDBF11E0A0E0B1E0E0E4FCE102C0F2
:1000800005900D92A43EB107D9F712E0A4EEB1E0BD
:1000900001C01D92AC37B107E1F70E94D40D0C945A
:1000A000E90D0C940000F89484B7877F84BFE0E6E4
:1000B000F0E080818861808310827894089584B113
:1000C000876084B985B1876085B90895529A8BB1EC
:1000D0008C608BB908958A3018F4805D9927089553
:1000E000895C99270895982FFB018156863010F47A
:1000F000975505C0892F8154863028F497539083F3
:1001000081E090E00895892F80538A3018F080E0D4
:1001100090E00895808381E090E00895EF92FF924F
:100120000F931F93CF93DF93CDB7DEB721970FB611
:10013000F894DEBF0FBECDBF7C018B01BE016F5FA7
:100140007F4FFC0180810E947300882399F0898190
:100150008295807F8983B801F70181810E947300B5
:10016000882341F0F80180819981892B808381E087
:1001700090E002C080E090E021960FB6F894DEBFD8
:100180000FBECDBFDF91CF911F910F91FF90EF90E8
:100190000895EF92FF920F931F93CF93DF93CDB704
:1001A000DEB722970FB6F894DEBF0FBECDBF8C012D
:1001B0007B01BE016F5F7F4F0E948E008823B9F0E4
:1001C000BE016E5F7F4FC80102960E948E00882399
:1001D00071F089819927982F88272A813327822BCC
:1001E000932BF7019183808381E090E002C080E04F
:1001F00090E022960FB6F894DEBF0FBECDBFDF9120
:10020000CF911F910F91FF90EF900895EF92FF9281
:100210000F931F93CF93DF93CDB7DEB723970FB61E
:10022000F894DEBF0FBECDBF8C017B01BE016F5FB6
:100230007F4F0E948E008823A9F1BE016E5F7F4F21
:10024000C80102960E948E00882361F1BE016D5F95
:100250007F4FC80104960E948E00882319F189817E
:100260009927AA27BB27DC01992788272A813327CA
:1002700044275527542F432F322F2227822B932B8D
:10028000A42BB52B2B81332744275527822B932B67
:10029000A42BB52BF70180839183A283B38381E0E4
:1002A00090E002C080E090E023960FB6F894DEBFA5
:1002B0000FBECDBFDF91CF911F910F91FF90EF90B7
:1002C0000895FB01982F92959F709A3010F4905DDD
:1002D00001C0995C292F332721938F708A3010F445
:1002E000805D01C0895C992780830895EF92FF9219
:1002F0000F931F938C017B01892F99270E94610125
:1003000082E090E0E80EF91EB701802F0E946101A3
:100310001F910F91FF90EF900895CF92DF92EF928F
:10032000FF920F931F936B017C018A01AA27BB27C1
:10033000BA010E9461010E5F1F4FB801C6010E9401
:1003400076011F910F91FF90EF90DF90CF9008956D
:100350000E946600F8941092C50083E08093C40068
:1003600088E98093C10086E88093C200789408955C
:100370001F920F920FB60F9211248F93EF93FF935A
:100380008091C600E091E501FF27E951FE4F80838F
:100390008091E5018F5F8093E5018091E5018031D7
:1003A00011F41092E5018091E4018F5F8093E401E4
:1003B0008091E4018D3009F45A9AFF91EF918F9169
:1003C0000F900FBE0F901F9018959091E6018091AD
:1003D000E50120E030E0981711F021E030E0C9019C
:1003E00008955A9A0895F8941092E6011092E50142
:1003F0001092E40178945A980895DC01109200025A
:100400001092FF01209144023091450207C0809173
:10041000FF01909100022817390730F19091E60111
:100420008091E501981799F3F894E091E601FF2790
:10043000E951FE4F80818C938091E6018F5F80931C
:10044000E6018091E601803111F41092E60180917D
:10045000E40181508093E4018091E401789482303A
:1004600031F081E090E0089580E090E00895289ACE
:100470005A9881E090E00895482F1092000210925F
:10048000FF0120914602309147020AC08091FF018E
:10049000909100022817390718F480E090E0089541
:1004A0008091C00085FFF2CF4093C60081E090E0CC
:1004B0000895CF93DF93EC0108C00E943C0288238B
:1004C00019F480E090E006C0219688818823A9F77E
:1004D00081E090E0DF91CF910895FF920F931F93F9
:1004E000CF93DF938C01F62EC0E0D0E00CC0F80172
:1004F000E80FF11D80810E943C022196882319F4A7
:1005000080E090E005C08C2FCF1588F381E090E06B
:10051000DF91CF911F910F91FF90089580E091E0BE
:100520000E9459029927089567EF71E00E946101C6
:1005300062E087EF91E00E946D02882319F480E069
:1005400090E008950E948E029927089567EF71E068
:100550000E94760164E087EF91E00E946D0288239B
:1005600019F480E090E008950E948E029927089582
:1005700047EF51E00E948D0166E087EF91E00E9415
:100580006D02882319F480E090E008950E948E02A5
:1005900099270895F89422E02093B0002093B100A9
:1005A00087EC8093B3001092B200209370001092F9
:1005B00080008AE080938100109282008FE19EE4A7
:1005C0009093890080938800109285001092840097
:1005D00020936F00789408951F920F920FB60F9298
:1005E00011248F939F938091FF01909100020196B7
:1005F000909300028093FF019F918F910F900FBE07
:100600000F901F9018951F920F920FB60F92112402
:100610008F939F938091FD019091FE01019690939D
:10062000FE018093FD019F918F910F900FBE0F905F
:100630001F9018959C011092FE011092FD0180916F
:10064000FD019091FE0182179307C8F308959C0164
:10065000109200021092FF018091FF019091000220
:1006600082179307C8F30895FC012FEF3FEF47E18E
:1006700050E081912827822F82958227082E869527
:1006800086958025082E869580258770022E232F3B
:10069000869507948795302D2827069487953025D1
:1006A00028274150504029F7C9010895F99B03C0FC
:1006B00081E090E0089547E150E062E070E085E37A
:1006C00092E00E94020E85E392E00E943403BC0196
:1006D00080E090E00E941A0E80E090E008950F9371
:1006E0001F93CF93DF93CDB7DEB767970FB6F8941C
:1006F000DEBF0FBECDBFF99B03C081E090E022C0FA
:1007000047E150E062E070E0CE0101960E94EC0DFE
:1007100080E090E00E94FC0D8C01CE0101960E94C9
:1007200034030817190719F082E090E00BC0A5E325
:10073000B2E0FE01319687E101900D928150E1F720
:1007400080E090E067960FB6F894DEBF0FBECDBF95
:10075000DF91CF911F910F910895A5E3B2E0E3E0FF
:10076000F1E087E101900D928150E1F708950E9438
:100770006F03882349F0A5E3B2E0E3E0F1E087E10D
:1007800001900D928150E1F708951F93182F109258
:10079000560210925702109258021092590210926B
:1007A0005B0210925A0210925C02E0910402F091F6
:1007B00005020190F081E02DCB01BA010995882353
:1007C00021F080935C02992709C010925502109283
:1007D000540210934C02299880E090E01F910895F4
:1007E000CF92DF92EF92FF920F931F937A018B01CA
:1007F0006901299AE0910402F09105020280F381D7
:10080000E02D0995E0925602F092570200935802AB
:1008100010935902D0925B02C0925A0280935C02FC
:1008200099271F910F91FF90EF90DF90CF9008953F
:100830005F926F927F928F929F92AF92BF92CF9270
:10084000DF92EF92FF920F931F93CF93DF933A01C2
:100850004B0158016901E701B901A8010E94C503D4
:10086000882309F074C01092FE011092FD01EE245D
:10087000FF24870151E0552E5BC093013F733093F5
:100880004F0220934E02D401C3014EE0B695A795C6
:10089000979587954A95D1F780934D0240E050E4B3
:1008A000421B530BCE01AA27BB27A816B906CA06BE
:1008B000DB0610F4D601C5019A018417950708F4E8
:1008C0009C0130935102209350028FEF9FEF909341
:1008D000530280935202E0910202F09103020995C3
:1008E000882369F5E0910402F09105020480F58106
:1008F000E02D809152029091530209958823F9F4DA
:100900008091540290915502AA27BB27680E791E48
:100910008A1E9B1EA81AB90ACA0ADB0AE80EF91E2B
:100920000A1F1B1F81E0582611F0299801C0299A3F
:10093000A114B104C104D10409F09FCF80E020913B
:10094000FD013091FE01B801A7010E94F003992733
:10095000DF91CF911F910F91FF90EF90DF90CF909B
:10096000BF90AF909F908F907F906F905F90089511
:10097000FF920F931F93CF93DF93F62E8A01E90125
:10098000A901662777270E94C5038823C9F4F0923E
:100990004D0210934F0200934E02D0935102C09328
:1009A0005002E0910202F091030209954091540235
:1009B000509155026627772720E030E00E94F0032F
:1009C0009927DF91CF911F910F91FF900895CF92BA
:1009D000DF92EF92FF920F931F93CF93DF93CDB7E8
:1009E000DEB721970FB6F894DEBF0FBECDBFC09023
:1009F0005002D090510280913702898300915202B7
:100A000010915302EE24FF2427C0E0910402F091DC
:100A100005020680F781E02DCE0101960995882315
:100A2000F9F489810827202F22952027022E269568
:100A300026952025022E269520252770002E012F91
:100A4000269507942795102D0227069427951025A3
:100A500002270894E11CF11CEC14FD0409F0D5CF29
:100A6000F0925502E0925402109353020093520206
:100A700080E090E021960FB6F894DEBF0FBECDBFA8
:100A8000DF91CF911F910F91FF90EF90DF90CF906A
:100A9000089580E090E008959927089580E090E01F
:100AA0000895FC019091370280910102882321F47E
:100AB000908380E090E008958081891719F088E0A4
:100AC00090E0089580E090E00895CF92DF92EF9259
:100AD000FF920F931F93CF93DF93CDB7DEB721978C
:100AE0000FB6F894DEBF0FBECDBFC0905002D090BD
:100AF00051020091520210915302EE24FF2427C0AC
:100B0000E0910402F09105020680F781E02DCE010C
:100B1000019609958823F9F489810827202F2295C9
:100B20002027022E269526952025022E2695202563
:100B30002770002E012F269507942795102D022748
:100B400006942795102502270894E11CF11CEC144B
:100B5000FD0409F0D5CFF0925502E09254021093B3
:100B600053020093520280E090E021960FB6F89471
:100B7000DEBF0FBECDBFDF91CF911F910F91FF90D0
:100B8000EF90DF90CF9008950E94F30180E00E94E3
:100B90003C02882319F080E090E0089587E090E01F
:100BA00008951F93182F0E943C02882309F417E030
:100BB0000E94F101812F99271F9108950E94FD0144
:100BC000882319F080E090E0089587E090E0089590
:100BD0000F931F93CF93DF93CDB7DEB722970FB656
:100BE000F894DEBF0FBECDBF8C01CE0101960E94EE
:100BF000FD018823B9F0CE0102960E94FD018823F1
:100C000089F089819927982F88272A813327822B79
:100C1000932B8017910719F480E090E005C08AE0DB
:100C200090E002C087E090E022960FB6F894DEBF15
:100C30000FBECDBFDF91CF911F910F910895CF933C
:100C4000DF93CDB7DEB721970FB6F894DEBF0FBEA6
:100C5000CDBF0E94F301CE0101960E94FD018823C1
:100C600031F08981882319F480E090E002C087E0A8
:100C700090E021960FB6F894DEBF0FBECDBFDF9196
:100C8000CF910895CF93DF93CDB7DEB721970FB6FD
:100C9000F894DEBF0FBECDBFCE0101960E94FD01CC
:100CA000882311F487E089830E94F10189819927C3
:100CB00021960FB6F894DEBF0FBECDBFDF91CF9166
:100CC0000895CF93DF93EC01892F99270E943C026E
:100CD000882379F08C2F0E943C02882351F00E94D7
:100CE000E501882319F089E090E005C080E090E0FC
:100CF00002C087E090E0DF91CF910895FC018081F0
:100D00000E943C02882319F080E090E0089587E07B
:100D100090E0089587B1807F87B988B18F6088B9E6
:100D20003C98449A08953D98459A0E948A060895F1
:100D300087B18F6087B988B18F6088B93C98449A31
:100D4000089587B1887F87B93B9A88B18F6088B949
:100D50003C98449A0895EF92FF921F93CF93DF93AC
:100D6000182FC0913C02D0913D02E0903E02F090DD
:100D70003F0287B1806387B987B1876087B945989B
:100D8000CE010E942703112329F0449888B11095C1
:100D9000812388B9CE010E942703459AC7010E948A
:100DA0001A03449A88B1876088B987B18F7C87B964
:100DB00087B1887F87B9DF91CF911F91FF90EF9026
:100DC000089540913A0250913B0210920002109215
:100DD000FF01282F332709C086B1992780719070B1
:100DE0008217930711F481E008C08091FF01909170
:100DF00000028417950780F380E099270895BF9239
:100E0000CF92DF92EF92FF920F931F93CF93DF93D6
:100E10007C01C0914A02D0914B02D0903802B09030
:100E200039021092FE011092FD0100E025C000FD84
:100E300003C04398CC2403C0439A80E1C82E10E03D
:100E400016C086B19927807190702C2D3327821798
:100E5000930779F41F5F1D1531F40F5F043049F4D7
:100E600080E090E012C08B2D99270E9427031D156A
:100E700040F3CE010E9427038091FD019091FE0175
:100E80008E159F05A0F28CE090E0DF91CF911F912D
:100E90000F91FF90EF90DF90CF90BF9008951F9338
:100EA000182F88B1807F912F929596959770892BF6
:100EB00088B980E00E94E106882319F481E090E07F
:100EC0002BC088B1807F912F969596959770892B2E
:100ED000886088B980E10E94E106882319F482E0E5
:100EE00090E01AC088B1807F1370812B88B980E0B0
:100EF0000E94E106882319F483E090E00DC088B1D8
:100F00008F6088B980E10E94E106882319F484E0AB
:100F100090E002C080E090E01F9108951F93182F89
:100F200088B1807F912F9295969596959370892B95
:100F300088B980E00E94E106882319F481E090E0FE
:100F400031C088B1807F912F92959F709370892BCB
:100F5000886088B980E10E94E106882319F482E064
:100F600090E020C098B1907F812F86958695837000
:100F7000982B98B980E00E94E106882319F483E059
:100F800090E010C088B1807F1370812B886088B991
:100F900080E10E94E106882319F484E090E002C019
:100FA00080E090E01F9108951F93CF93DF93EC01B1
:100FB000109135021882439880E00E94E106882350
:100FC00019F481E090E038C0812F8A95F1F786B15D
:100FD00098818295880F807E892B8883439A80E14F
:100FE0000E94E106882319F482E090E025C0812F59
:100FF0008A95F1F786B198818770880F880F892BC1
:101000008883439880E00E94E106882319F483E0F6
:1010100090E012C01A95F1F786B198818370982BF1
:101020009883439A80E10E94E106882319F484E0C2
:1010300090E002C080E090E0DF91CF911F91089591
:10104000CF93DF93C92FDD270E944F07882319F420
:101050008C2F0E944F079927DF91CF9108957F929F
:101060008F929F92AF92BF92CF92DF92EF92FF92B8
:101070000F931F93CF93DF93CDB7DEB722970FB6B1
:10108000F894DEBF0FBECDBF809050029090510209
:101090000E94980681E00E944F07182F8823D9F4F8
:1010A00080914C020E944F07182F8823A1F4809151
:1010B0004D020E944F07182F882369F480914E0239
:1010C00090914F020E942008182F882321F4C40118
:1010D0000E942008182F0E94A106E0905202F09072
:1010E0005302112329F07724AA24BB2400E03EC038
:1010F0007724AA24BB2400E035C032E0C32ED12CD3
:10110000CC0EDD1EC6010E94D407182F882309F0DB
:101110002DC0002351F4E0910402F09105020680F5
:10112000F781E02DC6010995082F8A81780E739406
:10113000E8262E2D22952E25022E26952695202551
:10114000022E2695202527700E2CEF2C269507942D
:101150002795F02CE22606942795F024E2260894A1
:10116000A11CB11CA814B90408F4C7CFB092550251
:10117000A0925402F0925302E0925202112329F4F9
:10118000CE0101960E94D407182F0E948A060023E0
:1011900019F0802F99270DC0112319F0812F99275D
:1011A00008C08981781619F480E090E002C086E0DA
:1011B00090E022960FB6F894DEBF0FBECDBFDF9150
:1011C000CF911F910F91FF90EF90DF90CF90BF9044
:1011D000AF909F908F907F900895CF92DF92EF9283
:1011E000FF920F931F93CF93DF93CDB7DEB7249772
:1011F0000FB6F894DEBF0FBECDBF182FE62E6A01E2
:10120000F22E0E949806812F0E944F07182F8823E4
:1012100009F04CC0EE2079F00E94F30100E0F601E5
:10122000E00FF11D80810E944F07182F8823F1F5F0
:101230000F5F0E15A1F7FF2081F10E94A106FA822F
:101240008FEFF81661F4CE0102960E94D407182F92
:10125000882361F58A810E949402882301F1EE249B
:10126000FF2417C0CE0101960E94D407182F8823AF
:10127000E9F48E010D5F1F4FB80189810E94610161
:1012800062E0C8010E946D020894E11CF11C8823F1
:1012900031F08A81E81630F304C010E007C017E08F
:1012A00005C00E948E028823D1F3F7CF0E948A06E0
:1012B000812F992724960FB6F894DEBF0FBECDBFBD
:1012C000DF91CF911F910F91FF90EF90DF90CF9022
:1012D0000895AF92BF92CF92DF92EF92FF920F9359
:1012E0001F93CF93DF93CDB7DEB722970FB6F89455
:1012F000DEBF0FBECDBFA0905002B09051020E9441
:10130000980682E00E944F07382F8823D9F48091F5
:101310004C020E944F07382F8823A1F480914D0280
:101320000E944F07382F882369F480914E029091D4
:101330004F020E942008382F882321F4C5010E9403
:101340002008382F0091520210915302332329F0C4
:10135000DD24EE24FF24CC243BC0DD24EE24FF2436
:10136000CC2432C0CC2061F4E0910402F09105025B
:101370000680F781E02DCE0102960995C82E01C0A6
:101380001A828A810E944F07382F882309F58A81A3
:10139000D80ED3940827202F22952027022E269599
:1013A00026952025022E269520252770002E012F18
:1013B000269507942795102D02270694279510252A
:1013C00002270894E11CF11CEA14FB0408F4CACFBC
:1013D000F0925502E092540210935302009352028D
:1013E000332319F48D2D0E944F070E94A106198204
:1013F000CE0101960E94D407182F0E948A06CC20A5
:1014000019F08C2D99270DC0112319F0812F9927E0
:1014100008C08981D81619F480E090E002C086E007
:1014200090E022960FB6F894DEBF0FBECDBFDF91DD
:10143000CF911F910F91FF90EF90DF90CF90BF90D1
:10144000AF90089588B18F6188B987B18F6187B9EE
:10145000089580958F71806E88B9089588B18F61E5
:1014600088B987B1807E87B90895CF93DF93EC0167
:101470008D2F99270E948E07882319F48C2F0E94A4
:101480008E079927DF91CF910895AF92BF92DF9297
:10149000EF92FF920F931F93CF93DF93CDB7DEB7F9
:1014A00021970FB6F894DEBF0FBECDBFE0906D025E
:1014B000F0906E02A0906F02B09070021092FE0148
:1014C0001092FD010E94F30180E00E943C020E9404
:1014D0009806C7010E94350A082FC7018A0D9B1D77
:1014E0000197002369F50E94350A082F882341F5EA
:1014F00091E0D92E10E0EE24FF2418C0CE01019611
:101500000E94FD018823D1F089810E948E07082F57
:101510008823B9F481E0D82611F0299801C0299ACE
:101520008981180F1F5F0894E11CF11CEA14FB0469
:1015300029F7812F0E948E07082F03C007E001C002
:1015400010E00E948A06802F0E943C02002319F4BA
:10155000812F0E943C020E94F101299A202F3327FB
:101560008091FD019091FE0190935B0280935A025D
:1015700020935C02222311F00E94390C21960FB6B1
:10158000F894DEBF0FBECDBFDF91CF911F910F91B9
:10159000FF90EF90DF90BF90AF90089510920702F8
:1015A00028982A9A0E94F3010895AF92BF92CF9291
:1015B000DF92FF920F931F93CF93DF93CDB7DEB7E8
:1015C00021970FB6F894DEBF0FBECDBF2BC1CE0161
:1015D00001960E94FD0199819A3019F09D3009F021
:1015E00000C180910702882309F41CC10E94F10107
:1015F000289A30910702383211F411E029C03323C0
:1016000009F4EBC0E32FFF27E85FFD4F10822DE6C2
:10161000A22E21E0B22E17C020E0F50141815281B7
:10162000E22FFF27DA01AE0FBF1F9C91E85FFD4F4D
:101630008081981721F42F5F261769F0F1CF87E09A
:1016400090E0A80EB91EF5016081662329F712E02B
:10165000AA24BB24A9C0932F921B3327285F3D4F98
:10166000F501C380D4801092790210927A02109210
:101670007B02890102C00F5F1F4FF8018081803219
:10168000D1F3F92EF20EF01AC114D10409F079C089
:10169000FF2009F47DC083E090E085C08A3219F014
:1016A0000894C11CD11CFF2031F48A3209F470C0A7
:1016B00084E090E078C0843709F441C0853728F48D
:1016C0008A3231F08236C9F503C08737B1F51CC0C4
:1016D000F1E0FF1508F05FC060917902603109F414
:1016E0005DC07727635A7D4FC8010E948E00882312
:1016F00009F457C0809179028F5F809379028EEF51
:10170000F80E0E5F1F4F19C093E09F1508F043C0FD
:1017100060917A027727660F771F63597D4FC80162
:101720000E94C9008823E9F180917A028F5F80933B
:101730007A02ECEFFE0E0C5F1F4FF8011CC0F5E0C3
:10174000FF1548F560917B027727660F771F660FBC
:10175000771F6F587D4FC8010E940601882309F149
:1017600080917B028F5F80937B028AEFF80E0A5F85
:101770001F4FE3CF319680818032E1F3F00EFE1AE5
:101780008F01F6018081882309F088CFFF2031F492
:1017900080E090E008C085E090E005C087E090E040
:1017A00002C086E090E0182F812F0E949402A114BD
:1017B000B10449F0112339F42A9AF5018581968103
:1017C000FC01099508C02A9881E0809306021092D6
:1017D000FE011092FD01109207020E94F301289869
:1017E00021C0983011F09F3731F48091070288238F
:1017F00089F081500CC09032A8F0809107028832A5
:1018000048F4E82FFF27E85FFD4F90838F5F8093B8
:10181000070208C02A9881E0809306021092FE0118
:101820001092FD010E94E501882309F0D0CE20919D
:1018300040023091410280910602882351F080914C
:10184000FD019091FE012817390718F42A9A109289
:10185000060221960FB6F894DEBF0FBECDBFDF9112
:10186000CF911F910F91FF90DF90CF90BF90AF90DD
:101870000895EF92FF920F931F93CF93DF93CDB70D
:10188000DEB721970FB6F894DEBF0FBECDBF2A9802
:101890000E94F301E090360281E0F82E00E010E0B3
:1018A00017C080914002909141020E941A0381E08A
:1018B000F82611F02A9806C02A9A04C0CE01019693
:1018C0000E94FD010E94E5018823C1F70F5F1F4FB1
:1018D0000E1538F30E94F1012A9A21960FB6F8945A
:1018E000DEBF0FBECDBFDF91CF911F910F91FF9053
:1018F000EF900895299880915D020E94AB06299A85
:1019000080E00E949402089585E090E00E94A60283
:10191000089560917902625020915E024FE552E095
:1019200080915D020E94ED080E94940208951F9329
:1019300029980E94980680916D0290916E020E94F3
:10194000FF06182F0E948A06299A812F0E9494026E
:101950001F910895EF92FF920F931F93E09048021A
:10196000F090490200917502109176022091770261
:10197000309178024091710250917202609173022D
:101980007091740280915D020E941804882311F006
:101990000E94390C1F910F91FF90EF9008952091B4
:1019A0003002223049F082E291E090930502809368
:1019B0000402213051F40CC08AE191E090930502B9
:1019C0008093040281E0809301028FE298E002C0DC
:1019D00087EE94E090930302809302020E94AA0C87
:1019E000089520913002223049F08AE291E09093EC
:1019F000050280930402213049F40BC08AE191E092
:101A000090930502809304021092010289E699E006
:101A100002C085E695E090930302809302020E9443
:101A2000AA0C089580915D02809330020895809100
:101A30005C020E94940280915A0290915B020E9483
:101A4000A602089580915D02E5E3F2E0E80FF11D42
:101A500080915E02808380E00E94940208958091CC
:101A60005D02E5E3F2E0E80FF11D80810E9494023F
:101A70000895E0915D02FF27EE0FFF1FEB5CFD4F25
:101A800080916D0290916E029683858380E00E9422
:101A900094020895E0915D02FF27EE0FFF1FEB5CBB
:101AA000FD4F858196810E94A602089580915D0276
:101AB000882321F40E94AD0380E007C0813019F42F
:101AC0000E946F0302C00E9456030E949402089570
:101AD00085E00E94940289E00E94940208950F9389
:101AE0001F930E94F30180E00E943C020E94220AA0
:101AF00000E084E392E00E94FD01882309F441C0E4
:101B000080913402982F9F7190933302807E80934E
:101B10003402803811F410E035C0882351F4892F45
:101B20000E94290A81E0082711F02998E2CF299A1A
:101B3000E0CF8032F1F6892F99279093320280937B
:101B400031021092FE011092FD0111E00CC0112330
:101B500051F00E94E501882331F084E392E00E9475
:101B6000FD01811110E02091FD013091FE01809175
:101B70003102909132022817390748F3112309F4F2
:101B8000BFCF11E080E00E94290A0E942E0A812F17
:101B90000E943C020E94F101299A112311F00E9437
:101BA000390C1F910F910895CFEFD4E0DEBFCDBF68
:101BB0000E9453000E945F000E94CA020E94A80176
:101BC0000E9493060E94B7030E94CE0A0E94D50A83
:101BD000FDCFF8940C941F0EDC01CB01FC01F999A8
:101BE000FECF06C0F2BDE1BDF89A319600B40D9269
:101BF00041505040B8F70895A8E1B0E042E050E00D
:101C00000C94EE0DDC01CB0103C02D910E940D0E52
:101C100041505040D0F70895262FF999FECF1FBAB2
:101C200092BD81BD20BD0FB6F894FA9AF99A0FBE05
:101C3000019608950E940C0E272F0C940D0EFFCFD5
:101C40000D0A000205000314FF0F64006400320057
:101C50008813881388130004C80049054C054E05F5
:101C600051051F06420661067E06C405D105E8053A
:101C7000DE056D006200720062747400770074000B
:101C80007777006100630062622A00780076006A5C
:101C900000706273006262007062670070777300A8
:101CA0006277007077670070630070710001320125
:101CB0003401120D0136013801CF0C013C0138010D
:101CC000F10C013E010000170D0134014001450AED
:101CD0000143013C01970C0145014701890C014B6F
:101CE0000134017A0C014D010000840C014F010008
:101CF000006F0D0351015501220D03580134012FCE
:101D00000D035C016001390D03630134014A0D02CA
:101D100067013401560D026A010000680D000000E1
:041D200000000000BF
:00000001FF
